{
  "_format": "hh-sol-artifact-1",
  "contractName": "FundMe",
  "sourceName": "contracts/FundMe.sol",
  "abi": [
    {
      "inputs": [],
      "stateMutability": "nonpayable",
      "type": "constructor"
    },
    {
      "inputs": [],
      "name": "NotOwner",
      "type": "error"
    },
    {
      "stateMutability": "payable",
      "type": "fallback"
    },
    {
      "inputs": [],
      "name": "MINIMUM_ETH",
      "outputs": [
        {
          "internalType": "uint256",
          "name": "",
          "type": "uint256"
        }
      ],
      "stateMutability": "view",
      "type": "function"
    },
    {
      "inputs": [
        {
          "internalType": "address",
          "name": "",
          "type": "address"
        }
      ],
      "name": "addressToAmountFunded",
      "outputs": [
        {
          "internalType": "uint256",
          "name": "",
          "type": "uint256"
        }
      ],
      "stateMutability": "view",
      "type": "function"
    },
    {
      "inputs": [],
      "name": "fund",
      "outputs": [],
      "stateMutability": "payable",
      "type": "function"
    },
    {
      "inputs": [
        {
          "internalType": "uint256",
          "name": "",
          "type": "uint256"
        }
      ],
      "name": "funders",
      "outputs": [
        {
          "internalType": "address",
          "name": "",
          "type": "address"
        }
      ],
      "stateMutability": "view",
      "type": "function"
    },
    {
      "inputs": [],
      "name": "getFunders",
      "outputs": [
        {
          "internalType": "address[]",
          "name": "",
          "type": "address[]"
        }
      ],
      "stateMutability": "view",
      "type": "function"
    },
    {
      "inputs": [],
      "name": "i_owner",
      "outputs": [
        {
          "internalType": "address",
          "name": "",
          "type": "address"
        }
      ],
      "stateMutability": "view",
      "type": "function"
    },
    {
      "inputs": [],
      "name": "withdraw",
      "outputs": [],
      "stateMutability": "nonpayable",
      "type": "function"
    },
    {
      "stateMutability": "payable",
      "type": "receive"
    }
  ],
  "bytecode": "0x608060405234801561001057600080fd5b5033600260006101000a81548173ffffffffffffffffffffffffffffffffffffffff021916908373ffffffffffffffffffffffffffffffffffffffff160217905550610ba7806100616000396000f3fe6080604052600436106100745760003560e01c8063d5e3af451161004e578063d5e3af45146100eb578063dba6335f14610116578063dc0d3dff14610141578063ea63a0441461017e57610083565b80633ccfd60b1461008d5780633e47d6f3146100a4578063b60d4288146100e157610083565b36610083576100816101a9565b005b61008b6101a9565b005b34801561009957600080fd5b506100a26102ae565b005b3480156100b057600080fd5b506100cb60048036038101906100c69190610775565b610554565b6040516100d891906107bb565b60405180910390f35b6100e96101a9565b005b3480156100f757600080fd5b5061010061056c565b60405161010d91906107bb565b60405180910390f35b34801561012257600080fd5b5061012b610578565b60405161013891906107e5565b60405180910390f35b34801561014d57600080fd5b506101686004803603810190610163919061082c565b61059e565b60405161017591906107e5565b60405180910390f35b34801561018a57600080fd5b506101936105dd565b6040516101a09190610917565b60405180910390f35b670de0b6b3a76400003410156101f4576040517f08c379a00000000000000000000000000000000000000000000000000000000081526004016101eb90610996565b60405180910390fd5b346000803373ffffffffffffffffffffffffffffffffffffffff1673ffffffffffffffffffffffffffffffffffffffff168152602001908152602001600020600082825461024291906109e5565b925050819055506001339080600181540180825580915050600190039060005260206000200160009091909190916101000a81548173ffffffffffffffffffffffffffffffffffffffff021916908373ffffffffffffffffffffffffffffffffffffffff160217905550565b600260009054906101000a900473ffffffffffffffffffffffffffffffffffffffff1673ffffffffffffffffffffffffffffffffffffffff163373ffffffffffffffffffffffffffffffffffffffff1614610335576040517f30cd747100000000000000000000000000000000000000000000000000000000815260040160405180910390fd5b600060018054806020026020016040519081016040528092919081815260200182805480156103b957602002820191906000526020600020905b8160009054906101000a900473ffffffffffffffffffffffffffffffffffffffff1673ffffffffffffffffffffffffffffffffffffffff168152602001906001019080831161036f575b5050505050905060005b81518110156104435760008282815181106103e1576103e0610a19565b5b6020026020010151905060008060008373ffffffffffffffffffffffffffffffffffffffff1673ffffffffffffffffffffffffffffffffffffffff1681526020019081526020016000208190555050808061043b90610a48565b9150506103c3565b50600067ffffffffffffffff81111561045f5761045e610a90565b5b60405190808252806020026020018201604052801561048d5781602001602082028036833780820191505090505b50600190805190602001906104a392919061066b565b5060003373ffffffffffffffffffffffffffffffffffffffff16476040516104ca90610af0565b60006040518083038185875af1925050503d8060008114610507576040519150601f19603f3d011682016040523d82523d6000602084013e61050c565b606091505b5050905080610550576040517f08c379a000000000000000000000000000000000000000000000000000000000815260040161054790610b51565b60405180910390fd5b5050565b60006020528060005260406000206000915090505481565b670de0b6b3a764000081565b600260009054906101000a900473ffffffffffffffffffffffffffffffffffffffff1681565b600181815481106105ae57600080fd5b906000526020600020016000915054906101000a900473ffffffffffffffffffffffffffffffffffffffff1681565b6060600180548060200260200160405190810160405280929190818152602001828054801561066157602002820191906000526020600020905b8160009054906101000a900473ffffffffffffffffffffffffffffffffffffffff1673ffffffffffffffffffffffffffffffffffffffff1681526020019060010190808311610617575b5050505050905090565b8280548282559060005260206000209081019282156106e4579160200282015b828111156106e35782518260006101000a81548173ffffffffffffffffffffffffffffffffffffffff021916908373ffffffffffffffffffffffffffffffffffffffff1602179055509160200191906001019061068b565b5b5090506106f191906106f5565b5090565b5b8082111561070e5760008160009055506001016106f6565b5090565b600080fd5b600073ffffffffffffffffffffffffffffffffffffffff82169050919050565b600061074282610717565b9050919050565b61075281610737565b811461075d57600080fd5b50565b60008135905061076f81610749565b92915050565b60006020828403121561078b5761078a610712565b5b600061079984828501610760565b91505092915050565b6000819050919050565b6107b5816107a2565b82525050565b60006020820190506107d060008301846107ac565b92915050565b6107df81610737565b82525050565b60006020820190506107fa60008301846107d6565b92915050565b610809816107a2565b811461081457600080fd5b50565b60008135905061082681610800565b92915050565b60006020828403121561084257610841610712565b5b600061085084828501610817565b91505092915050565b600081519050919050565b600082825260208201905092915050565b6000819050602082019050919050565b61088e81610737565b82525050565b60006108a08383610885565b60208301905092915050565b6000602082019050919050565b60006108c482610859565b6108ce8185610864565b93506108d983610875565b8060005b8381101561090a5781516108f18882610894565b97506108fc836108ac565b9250506001810190506108dd565b5085935050505092915050565b6000602082019050818103600083015261093181846108b9565b905092915050565b600082825260208201905092915050565b7f596f75206e65656420746f207370656e64206d6f726520455448210000000000600082015250565b6000610980601b83610939565b915061098b8261094a565b602082019050919050565b600060208201905081810360008301526109af81610973565b9050919050565b7f4e487b7100000000000000000000000000000000000000000000000000000000600052601160045260246000fd5b60006109f0826107a2565b91506109fb836107a2565b9250828201905080821115610a1357610a126109b6565b5b92915050565b7f4e487b7100000000000000000000000000000000000000000000000000000000600052603260045260246000fd5b6000610a53826107a2565b91507fffffffffffffffffffffffffffffffffffffffffffffffffffffffffffffffff8203610a8557610a846109b6565b5b600182019050919050565b7f4e487b7100000000000000000000000000000000000000000000000000000000600052604160045260246000fd5b600081905092915050565b50565b6000610ada600083610abf565b9150610ae582610aca565b600082019050919050565b6000610afb82610acd565b9150819050919050565b7f43616c6c206661696c6564000000000000000000000000000000000000000000600082015250565b6000610b3b600b83610939565b9150610b4682610b05565b602082019050919050565b60006020820190508181036000830152610b6a81610b2e565b905091905056fea2646970667358221220b1c7d75576114e9d9afe5e87ddf16dcf90d9bd9ddecf252522ce3fed15de0fd364736f6c63430008110033",
  "linkReferences": {},
  "deployedLinkReferences": {}
}